{
  "contractName": "AIModelMarketplace",
  "abi": [
    {
      "anonymous": false,
      "inputs": [
        {
          "indexed": false,
          "internalType": "address",
          "name": "user",
          "type": "address"
        },
        {
          "indexed": false,
          "internalType": "uint256",
          "name": "amount",
          "type": "uint256"
        }
      ],
      "name": "BalanceClaimed",
      "type": "event"
    },
    {
      "anonymous": false,
      "inputs": [
        {
          "indexed": false,
          "internalType": "address",
          "name": "user",
          "type": "address"
        },
        {
          "indexed": false,
          "internalType": "uint256",
          "name": "newBalance",
          "type": "uint256"
        }
      ],
      "name": "BalanceUpdated",
      "type": "event"
    },
    {
      "anonymous": false,
      "inputs": [
        {
          "indexed": false,
          "internalType": "address",
          "name": "owner",
          "type": "address"
        },
        {
          "indexed": false,
          "internalType": "uint256",
          "name": "amount",
          "type": "uint256"
        }
      ],
      "name": "FundsWithdrawn",
      "type": "event"
    },
    {
      "anonymous": false,
      "inputs": [
        {
          "indexed": false,
          "internalType": "uint256",
          "name": "modelId",
          "type": "uint256"
        },
        {
          "indexed": false,
          "internalType": "string",
          "name": "name",
          "type": "string"
        },
        {
          "indexed": false,
          "internalType": "address",
          "name": "creator",
          "type": "address"
        }
      ],
      "name": "ModelListed",
      "type": "event"
    },
    {
      "anonymous": false,
      "inputs": [
        {
          "indexed": false,
          "internalType": "uint256",
          "name": "modelId",
          "type": "uint256"
        },
        {
          "indexed": false,
          "internalType": "address",
          "name": "buyer",
          "type": "address"
        }
      ],
      "name": "ModelPurchased",
      "type": "event"
    },
    {
      "anonymous": false,
      "inputs": [
        {
          "indexed": false,
          "internalType": "uint256",
          "name": "modelId",
          "type": "uint256"
        },
        {
          "indexed": false,
          "internalType": "uint8",
          "name": "rating",
          "type": "uint8"
        },
        {
          "indexed": false,
          "internalType": "address",
          "name": "rater",
          "type": "address"
        }
      ],
      "name": "ModelRated",
      "type": "event"
    },
    {
      "inputs": [],
      "name": "modelCount",
      "outputs": [
        {
          "internalType": "uint256",
          "name": "",
          "type": "uint256"
        }
      ],
      "stateMutability": "view",
      "type": "function",
      "constant": true
    },
    {
      "inputs": [
        {
          "internalType": "uint256",
          "name": "",
          "type": "uint256"
        }
      ],
      "name": "models",
      "outputs": [
        {
          "internalType": "string",
          "name": "name",
          "type": "string"
        },
        {
          "internalType": "string",
          "name": "description",
          "type": "string"
        },
        {
          "internalType": "uint256",
          "name": "price",
          "type": "uint256"
        },
        {
          "internalType": "address payable",
          "name": "creator",
          "type": "address"
        },
        {
          "internalType": "uint8",
          "name": "totalRating",
          "type": "uint8"
        },
        {
          "internalType": "uint256",
          "name": "ratingCount",
          "type": "uint256"
        }
      ],
      "stateMutability": "view",
      "type": "function",
      "constant": true
    },
    {
      "inputs": [
        {
          "internalType": "address",
          "name": "",
          "type": "address"
        }
      ],
      "name": "userFunds",
      "outputs": [
        {
          "internalType": "uint256",
          "name": "",
          "type": "uint256"
        }
      ],
      "stateMutability": "view",
      "type": "function",
      "constant": true
    },
    {
      "inputs": [
        {
          "internalType": "address",
          "name": "",
          "type": "address"
        },
        {
          "internalType": "uint256",
          "name": "",
          "type": "uint256"
        }
      ],
      "name": "userPurchasedModels",
      "outputs": [
        {
          "internalType": "uint256",
          "name": "",
          "type": "uint256"
        }
      ],
      "stateMutability": "view",
      "type": "function",
      "constant": true
    },
    {
      "inputs": [
        {
          "internalType": "string",
          "name": "name",
          "type": "string"
        },
        {
          "internalType": "string",
          "name": "description",
          "type": "string"
        },
        {
          "internalType": "uint256",
          "name": "price",
          "type": "uint256"
        }
      ],
      "name": "listModel",
      "outputs": [],
      "stateMutability": "nonpayable",
      "type": "function"
    },
    {
      "inputs": [
        {
          "internalType": "uint256",
          "name": "modelId",
          "type": "uint256"
        }
      ],
      "name": "purchaseModel",
      "outputs": [],
      "stateMutability": "payable",
      "type": "function",
      "payable": true
    },
    {
      "inputs": [
        {
          "internalType": "uint256",
          "name": "modelId",
          "type": "uint256"
        },
        {
          "internalType": "uint8",
          "name": "rating",
          "type": "uint8"
        }
      ],
      "name": "rateModel",
      "outputs": [],
      "stateMutability": "nonpayable",
      "type": "function"
    },
    {
      "inputs": [],
      "name": "withdrawFunds",
      "outputs": [],
      "stateMutability": "nonpayable",
      "type": "function"
    },
    {
      "inputs": [
        {
          "internalType": "uint256",
          "name": "modelId",
          "type": "uint256"
        }
      ],
      "name": "getModelDetails",
      "outputs": [
        {
          "internalType": "uint256",
          "name": "",
          "type": "uint256"
        },
        {
          "internalType": "string",
          "name": "",
          "type": "string"
        },
        {
          "internalType": "string",
          "name": "",
          "type": "string"
        },
        {
          "internalType": "uint256",
          "name": "",
          "type": "uint256"
        },
        {
          "internalType": "address",
          "name": "",
          "type": "address"
        },
        {
          "internalType": "uint8",
          "name": "",
          "type": "uint8"
        }
      ],
      "stateMutability": "view",
      "type": "function",
      "constant": true
    },
    {
      "inputs": [],
      "name": "getUserPurchasedModels",
      "outputs": [
        {
          "internalType": "uint256[]",
          "name": "",
          "type": "uint256[]"
        }
      ],
      "stateMutability": "view",
      "type": "function",
      "constant": true
    }
  ],
  "bytecode": "0x608060405234801561001057600080fd5b50611ada806100206000396000f3fe6080604052600436106100915760003560e01c80636a030ca9116100595780636a030ca91461017e5780638387c6e1146101c0578063c6a645fe146101fd578063dc74686214610228578063e9b1c8b61461024457610091565b806312ee1c0e146100965780631c788a9a146100bf5780631ced75a1146100e857806324600fc31461012557806331fc042f1461013c575b600080fd5b3480156100a257600080fd5b506100bd60048036038101906100b89190611080565b61026f565b005b3480156100cb57600080fd5b506100e660048036038101906100e19190611128565b610466565b005b3480156100f457600080fd5b5061010f600480360381019061010a9190611044565b6106f6565b60405161011c91906115d3565b60405180910390f35b34801561013157600080fd5b5061013a610727565b005b34801561014857600080fd5b50610163600480360381019061015e91906110ff565b6108dc565b60405161017596959493929190611655565b60405180910390f35b34801561018a57600080fd5b506101a560048036038101906101a091906110ff565b610a99565b6040516101b7969594939291906114a4565b60405180910390f35b3480156101cc57600080fd5b506101e760048036038101906101e2919061101b565b610c12565b6040516101f491906115d3565b60405180910390f35b34801561020957600080fd5b50610212610c2a565b60405161021f91906115d3565b60405180910390f35b610242600480360381019061023d91906110ff565b610c30565b005b34801561025057600080fd5b50610259610e3c565b6040516102669190611482565b60405180910390f35b60008351116102b3576040517f08c379a00000000000000000000000000000000000000000000000000000000081526004016102aa90611573565b60405180910390fd5b60008251116102f7576040517f08c379a00000000000000000000000000000000000000000000000000000000081526004016102ee90611573565b60405180910390fd5b6040518060c001604052808481526020018381526020018281526020013373ffffffffffffffffffffffffffffffffffffffff168152602001600060ff16815260200160008152506000806003548152602001908152602001600020600082015181600001908051906020019061036f929190610ed1565b50602082015181600101908051906020019061038c929190610ed1565b506040820151816002015560608201518160030160006101000a81548173ffffffffffffffffffffffffffffffffffffffff021916908373ffffffffffffffffffffffffffffffffffffffff16021790555060808201518160030160146101000a81548160ff021916908360ff16021790555060a082015181600401559050507fc871238e094f30f9449f0d1948e935f470dcbf4dbc2b2aef67d45f45d4ea880b600354843360405161044193929190611617565b60405180910390a16003600081548092919061045c90611949565b9190505550505050565b600080600084815260200190815260200160002090506000805b600260003373ffffffffffffffffffffffffffffffffffffffff1673ffffffffffffffffffffffffffffffffffffffff1681526020019081526020016000208054905081101561056f5784600260003373ffffffffffffffffffffffffffffffffffffffff1673ffffffffffffffffffffffffffffffffffffffff1681526020019081526020016000208281548110610542577f4e487b7100000000000000000000000000000000000000000000000000000000600052603260045260246000fd5b9060005260206000200154141561055c576001915061056f565b808061056790611949565b915050610480565b508160030160009054906101000a900473ffffffffffffffffffffffffffffffffffffffff1673ffffffffffffffffffffffffffffffffffffffff163373ffffffffffffffffffffffffffffffffffffffff16141580156105cd5750805b61060c576040517f08c379a000000000000000000000000000000000000000000000000000000000815260040161060390611513565b60405180910390fd5b60018360ff1610158015610624575060058360ff1611155b610663576040517f08c379a000000000000000000000000000000000000000000000000000000000815260040161065a90611593565b60405180910390fd5b828260030160148282829054906101000a900460ff166106839190611812565b92506101000a81548160ff021916908360ff1602179055508160040160008154809291906106b090611949565b91905055507f4129c8696bb756892ebbda9c4396a685357b1f8eddd505fee0f194e56f8c9a2b8484336040516106e8939291906116c4565b60405180910390a150505050565b6002602052816000526040600020818154811061071257600080fd5b90600052602060002001600091509150505481565b6000600160003373ffffffffffffffffffffffffffffffffffffffff1673ffffffffffffffffffffffffffffffffffffffff168152602001908152602001600020549050600081116107ae576040517f08c379a00000000000000000000000000000000000000000000000000000000081526004016107a590611553565b60405180910390fd5b60003373ffffffffffffffffffffffffffffffffffffffff16826040516107d490611444565b60006040518083038185875af1925050503d8060008114610811576040519150601f19603f3d011682016040523d82523d6000602084013e610816565b606091505b505090508061085a576040517f08c379a0000000000000000000000000000000000000000000000000000000008152600401610851906115b3565b60405180910390fd5b6000600160003373ffffffffffffffffffffffffffffffffffffffff1673ffffffffffffffffffffffffffffffffffffffff168152602001908152602001600020819055507feaff4b37086828766ad3268786972c0cd24259d4c87a80f9d3963a3c3d999b0d33836040516108d0929190611459565b60405180910390a15050565b6000606080600080600080600080898152602001908152602001600020905060008082600401541161090f576000610934565b81600401548260030160149054906101000a900460ff1660ff166109339190611849565b5b905088826000018360010184600201548560030160009054906101000a900473ffffffffffffffffffffffffffffffffffffffff168584805461097690611917565b80601f01602080910402602001604051908101604052809291908181526020018280546109a290611917565b80156109ef5780601f106109c4576101008083540402835291602001916109ef565b820191906000526020600020905b8154815290600101906020018083116109d257829003601f168201915b50505050509450838054610a0290611917565b80601f0160208091040260200160405190810160405280929190818152602001828054610a2e90611917565b8015610a7b5780601f10610a5057610100808354040283529160200191610a7b565b820191906000526020600020905b815481529060010190602001808311610a5e57829003601f168201915b50505050509350975097509750975097509750505091939550919395565b6000602052806000526040600020600091509050806000018054610abc90611917565b80601f0160208091040260200160405190810160405280929190818152602001828054610ae890611917565b8015610b355780601f10610b0a57610100808354040283529160200191610b35565b820191906000526020600020905b815481529060010190602001808311610b1857829003601f168201915b505050505090806001018054610b4a90611917565b80601f0160208091040260200160405190810160405280929190818152602001828054610b7690611917565b8015610bc35780601f10610b9857610100808354040283529160200191610bc3565b820191906000526020600020905b815481529060010190602001808311610ba657829003601f168201915b5050505050908060020154908060030160009054906101000a900473ffffffffffffffffffffffffffffffffffffffff16908060030160149054906101000a900460ff16908060040154905086565b60016020528060005260406000206000915090505481565b60035481565b6000806000838152602001908152602001600020905060008160030160009054906101000a900473ffffffffffffffffffffffffffffffffffffffff1673ffffffffffffffffffffffffffffffffffffffff168260020154604051610c9490611444565b60006040518083038185875af1925050503d8060008114610cd1576040519150601f19603f3d011682016040523d82523d6000602084013e610cd6565b606091505b5050905080610d1a576040517f08c379a0000000000000000000000000000000000000000000000000000000008152600401610d1190611533565b60405180910390fd5b8160020154600160008460030160009054906101000a900473ffffffffffffffffffffffffffffffffffffffff1673ffffffffffffffffffffffffffffffffffffffff1673ffffffffffffffffffffffffffffffffffffffff1681526020019081526020016000206000828254610d9191906117bc565b92505081905550600260003373ffffffffffffffffffffffffffffffffffffffff1673ffffffffffffffffffffffffffffffffffffffff1681526020019081526020016000208390806001815401808255809150506001900390600052602060002001600090919091909150557fc8581808129c51c0416692a5ea1b58e080ae8f21e384eefe2f2dc85d231d12ba8333604051610e2f9291906115ee565b60405180910390a1505050565b6060600260003373ffffffffffffffffffffffffffffffffffffffff1673ffffffffffffffffffffffffffffffffffffffff168152602001908152602001600020805480602002602001604051908101604052809291908181526020018280548015610ec757602002820191906000526020600020905b815481526020019060010190808311610eb3575b5050505050905090565b828054610edd90611917565b90600052602060002090601f016020900481019282610eff5760008555610f46565b82601f10610f1857805160ff1916838001178555610f46565b82800160010185558215610f46579182015b82811115610f45578251825591602001919060010190610f2a565b5b509050610f539190610f57565b5090565b5b80821115610f70576000816000905550600101610f58565b5090565b6000610f87610f828461172c565b6116fb565b905082815260208101848484011115610f9f57600080fd5b610faa8482856118d5565b509392505050565b600081359050610fc181611a5f565b92915050565b600082601f830112610fd857600080fd5b8135610fe8848260208601610f74565b91505092915050565b60008135905061100081611a76565b92915050565b60008135905061101581611a8d565b92915050565b60006020828403121561102d57600080fd5b600061103b84828501610fb2565b91505092915050565b6000806040838503121561105757600080fd5b600061106585828601610fb2565b925050602061107685828601610ff1565b9150509250929050565b60008060006060848603121561109557600080fd5b600084013567ffffffffffffffff8111156110af57600080fd5b6110bb86828701610fc7565b935050602084013567ffffffffffffffff8111156110d857600080fd5b6110e486828701610fc7565b92505060406110f586828701610ff1565b9150509250925092565b60006020828403121561111157600080fd5b600061111f84828501610ff1565b91505092915050565b6000806040838503121561113b57600080fd5b600061114985828601610ff1565b925050602061115a85828601611006565b9150509250929050565b60006111708383611417565b60208301905092915050565b6111858161188c565b82525050565b6111948161187a565b82525050565b60006111a58261176c565b6111af818561178f565b93506111ba8361175c565b8060005b838110156111eb5781516111d28882611164565b97506111dd83611782565b9250506001810190506111be565b5085935050505092915050565b600061120382611777565b61120d81856117ab565b935061121d8185602086016118e4565b61122681611a4e565b840191505092915050565b600061123e6048836117ab565b91507f41206d6f64656c2063616e6e6f7420626520726174656420627920697473206360008301527f726561746f72206f722070656f706c652077686f206469646e2774207075726360208301527f686173652069742e0000000000000000000000000000000000000000000000006040830152606082019050919050565b60006112ca6018836117ab565b91507f496e636f7272656374207061796d656e7420616d6f756e7400000000000000006000830152602082019050919050565b600061130a6014836117ab565b91507f4e6f2066756e647320746f2077697468647261770000000000000000000000006000830152602082019050919050565b600061134a6017836117ab565b91507f546865206d6f64656c206e616d6520697320656d7074790000000000000000006000830152602082019050919050565b600061138a601e836117ab565b91507f526174696e67206d757374206265206265747765656e203120616e64203500006000830152602082019050919050565b60006113ca6011836117ab565b91507f5472616e73616374696f6e206572726f720000000000000000000000000000006000830152602082019050919050565b600061140a6000836117a0565b9150600082019050919050565b611420816118be565b82525050565b61142f816118be565b82525050565b61143e816118c8565b82525050565b600061144f826113fd565b9150819050919050565b600060408201905061146e600083018561118b565b61147b6020830184611426565b9392505050565b6000602082019050818103600083015261149c818461119a565b905092915050565b600060c08201905081810360008301526114be81896111f8565b905081810360208301526114d281886111f8565b90506114e16040830187611426565b6114ee606083018661117c565b6114fb6080830185611435565b61150860a0830184611426565b979650505050505050565b6000602082019050818103600083015261152c81611231565b9050919050565b6000602082019050818103600083015261154c816112bd565b9050919050565b6000602082019050818103600083015261156c816112fd565b9050919050565b6000602082019050818103600083015261158c8161133d565b9050919050565b600060208201905081810360008301526115ac8161137d565b9050919050565b600060208201905081810360008301526115cc816113bd565b9050919050565b60006020820190506115e86000830184611426565b92915050565b60006040820190506116036000830185611426565b611610602083018461118b565b9392505050565b600060608201905061162c6000830186611426565b818103602083015261163e81856111f8565b905061164d604083018461118b565b949350505050565b600060c08201905061166a6000830189611426565b818103602083015261167c81886111f8565b9050818103604083015261169081876111f8565b905061169f6060830186611426565b6116ac608083018561118b565b6116b960a0830184611435565b979650505050505050565b60006060820190506116d96000830186611426565b6116e66020830185611435565b6116f3604083018461118b565b949350505050565b6000604051905081810181811067ffffffffffffffff8211171561172257611721611a1f565b5b8060405250919050565b600067ffffffffffffffff82111561174757611746611a1f565b5b601f19601f8301169050602081019050919050565b6000819050602082019050919050565b600081519050919050565b600081519050919050565b6000602082019050919050565b600082825260208201905092915050565b600081905092915050565b600082825260208201905092915050565b60006117c7826118be565b91506117d2836118be565b9250827fffffffffffffffffffffffffffffffffffffffffffffffffffffffffffffffff0382111561180757611806611992565b5b828201905092915050565b600061181d826118c8565b9150611828836118c8565b92508260ff0382111561183e5761183d611992565b5b828201905092915050565b6000611854826118be565b915061185f836118be565b92508261186f5761186e6119c1565b5b828204905092915050565b60006118858261189e565b9050919050565b60006118978261189e565b9050919050565b600073ffffffffffffffffffffffffffffffffffffffff82169050919050565b6000819050919050565b600060ff82169050919050565b82818337600083830152505050565b60005b838110156119025780820151818401526020810190506118e7565b83811115611911576000848401525b50505050565b6000600282049050600182168061192f57607f821691505b60208210811415611943576119426119f0565b5b50919050565b6000611954826118be565b91507fffffffffffffffffffffffffffffffffffffffffffffffffffffffffffffffff82141561198757611986611992565b5b600182019050919050565b7f4e487b7100000000000000000000000000000000000000000000000000000000600052601160045260246000fd5b7f4e487b7100000000000000000000000000000000000000000000000000000000600052601260045260246000fd5b7f4e487b7100000000000000000000000000000000000000000000000000000000600052602260045260246000fd5b7f4e487b7100000000000000000000000000000000000000000000000000000000600052604160045260246000fd5b6000601f19601f8301169050919050565b611a688161187a565b8114611a7357600080fd5b50565b611a7f816118be565b8114611a8a57600080fd5b50565b611a96816118c8565b8114611aa157600080fd5b5056fea2646970667358221220d4bc9cc144e0fbf27397270fd5fcf4aac9eb8ece15ccd8d92e79776884a492b764736f6c63430008000033",
  "immutableReferences": {},
  "source": "// SPDX-License-Identifier: MIT\npragma solidity ^0.8.0;\n\ncontract AIModelMarketplace {\n  struct Model {\n    string name;\n    string description;\n    uint256 price;\n    address payable creator;\n    uint8 totalRating;\n    uint256 ratingCount;\n  }\n\n  mapping(uint256 => Model) public models;\n  mapping(address => uint256) public userFunds;\n  mapping(address => uint256[]) public userPurchasedModels;\n  uint256 public modelCount;\n\n  // Event to signal when a model is listed\n  event ModelListed(uint256 modelId, string name, address creator);\n  event ModelPurchased(uint256 modelId, address buyer);\n  event ModelRated(uint256 modelId, uint8 rating, address rater);\n  event FundsWithdrawn(address owner, uint256 amount);\n  event BalanceUpdated(address user, uint256 newBalance);\n  event BalanceClaimed(address user, uint256 amount);\n\n  // List a new model\n  function listModel(string memory name, string memory description, uint256 price) public {\n    require(bytes(name).length > 0, \"The model name is empty\");\n    require(bytes(description).length > 0, \"The model name is empty\");\n\n    models[modelCount] = Model(name, description, price, payable(msg.sender), 0, 0);\n\n    emit ModelListed(modelCount, name, msg.sender);\n    modelCount++;\n  }\n\n  // Purchase a model\n  function purchaseModel(uint256 modelId) public payable {\n    Model storage model = models[modelId];\n\n//    require(model.creator != msg.sender, \"The model's creator cannot buy its own model\");\n\n    (bool success,) = model.creator.call{value: model.price}(\"\");\n\n    require(success, \"Incorrect payment amount\");\n\n    userFunds[model.creator] += model.price;\n\n    userPurchasedModels[msg.sender].push(modelId);\n\n    emit ModelPurchased(modelId, msg.sender);\n  }\n\n  // Rate a purchased model\n  function rateModel(uint256 modelId, uint8 rating) public {\n    Model storage model = models[modelId];\n\n    bool hasPurchased = false;\n\n    for (uint256 i = 0; i < userPurchasedModels[msg.sender].length; i++) {\n      if (userPurchasedModels[msg.sender][i] == modelId) {\n        hasPurchased = true;\n        break;\n      }\n    }\n\n    require(msg.sender != model.creator && hasPurchased, \"A model cannot be rated by its creator or people who didn't purchase it.\");\n    require(rating >= 1 && rating <= 5, \"Rating must be between 1 and 5\");\n\n    model.totalRating += rating;\n    model.ratingCount++;\n\n    emit ModelRated(modelId, rating, msg.sender);\n  }\n\n  // Withdraw accumulated funds for the creator\n  function withdrawFunds() public {\n    uint256 amount = userFunds[msg.sender];\n    require(amount > 0, \"No funds to withdraw\");\n\n    (bool success,) = payable(msg.sender).call{value: amount}(\"\");\n\n    require(success, \"Transaction error\");\n\n    userFunds[msg.sender] = 0;\n\n    emit FundsWithdrawn(msg.sender, amount);\n  }\n\n  // Get model details\n  function getModelDetails(uint256 modelId) public view returns (uint256, string memory, string memory, uint256, address, uint8) {\n    Model storage model = models[modelId];\n    uint8 averageRating = uint8(model.ratingCount > 0 ? model.totalRating / model.ratingCount : 0);\n    return (modelId, model.name, model.description, model.price, model.creator, averageRating);\n  }\n\n  // New function to retrieve user's purchased models\n  function getUserPurchasedModels() public view returns (uint256[] memory) {\n    return userPurchasedModels[msg.sender];\n  }\n}",
  "sourcePath": "C:\\Users\\Admin\\Desktop\\Projects\\blockchain_assignment_2\\server\\contracts\\AIModelMarketPlace.sol",
  "compiler": {
    "name": "solc",
    "version": "0.8.0+commit.c7dfd78e.Emscripten.clang"
  },
  "schemaVersion": "3.4.16",
  "updatedAt": "2024-10-02T12:39:58.014Z",
  "networkType": "ethereum",
  "devdoc": {
    "kind": "dev",
    "methods": {},
    "version": 1
  },
  "userdoc": {
    "kind": "user",
    "methods": {},
    "version": 1
  }
}